{
  "_format": "hh-sol-artifact-1",
  "contractName": "ChainOpsLedger",
  "sourceName": "contracts/ChainOpsLedger.sol",
  "abi": [
    {
      "anonymous": false,
      "inputs": [
        {
          "indexed": true,
          "internalType": "uint256",
          "name": "eventId",
          "type": "uint256"
        },
        {
          "indexed": true,
          "internalType": "string",
          "name": "projectId",
          "type": "string"
        },
        {
          "indexed": true,
          "internalType": "string",
          "name": "entityId",
          "type": "string"
        },
        {
          "indexed": false,
          "internalType": "string",
          "name": "eventType",
          "type": "string"
        },
        {
          "indexed": false,
          "internalType": "string",
          "name": "payloadHash",
          "type": "string"
        },
        {
          "indexed": false,
          "internalType": "address",
          "name": "actor",
          "type": "address"
        },
        {
          "indexed": false,
          "internalType": "uint256",
          "name": "timestamp",
          "type": "uint256"
        }
      ],
      "name": "AuditLogged",
      "type": "event"
    },
    {
      "inputs": [],
      "name": "getEventCount",
      "outputs": [
        {
          "internalType": "uint256",
          "name": "",
          "type": "uint256"
        }
      ],
      "stateMutability": "view",
      "type": "function"
    },
    {
      "inputs": [
        {
          "internalType": "string",
          "name": "projectId",
          "type": "string"
        },
        {
          "internalType": "string",
          "name": "entityId",
          "type": "string"
        },
        {
          "internalType": "string",
          "name": "eventType",
          "type": "string"
        },
        {
          "internalType": "string",
          "name": "payloadHash",
          "type": "string"
        }
      ],
      "name": "logEvent",
      "outputs": [],
      "stateMutability": "nonpayable",
      "type": "function"
    }
  ],
  "bytecode": "0x608060405234801561001057600080fd5b50610349806100206000396000f3fe608060405234801561001057600080fd5b50600436106100365760003560e01c806365236a911461003b578063d9e48f5c14610050575b600080fd5b61004e610049366004610191565b610065565b005b60005460405190815260200160405180910390f35b6001600080828254610077919061023e565b909155505060405161008a908490610289565b6040518091039020846040516100a09190610289565b60405180910390206000547fd3f3840c6bae70dbde677f162478b55e8b0b10b6cd36cccfe48f590faf603c25858533426040516100e094939291906102d1565b60405180910390a450505050565b634e487b7160e01b600052604160045260246000fd5b600082601f83011261011557600080fd5b813567ffffffffffffffff80821115610130576101306100ee565b604051601f8301601f19908116603f01168101908282118183101715610158576101586100ee565b8160405283815286602085880101111561017157600080fd5b836020870160208301376000602085830101528094505050505092915050565b600080600080608085870312156101a757600080fd5b843567ffffffffffffffff808211156101bf57600080fd5b6101cb88838901610104565b955060208701359150808211156101e157600080fd5b6101ed88838901610104565b9450604087013591508082111561020357600080fd5b61020f88838901610104565b9350606087013591508082111561022557600080fd5b5061023287828801610104565b91505092959194509250565b8082018082111561025f57634e487b7160e01b600052601160045260246000fd5b92915050565b60005b83811015610280578181015183820152602001610268565b50506000910152565b6000825161029b818460208701610265565b9190910192915050565b600081518084526102bd816020860160208601610265565b601f01601f19169290920160200192915050565b6080815260006102e460808301876102a5565b82810360208401526102f681876102a5565b6001600160a01b039590951660408401525050606001529291505056fea2646970667358221220f80695b9fdd7489b9f23729d7df7de3b3037a8276386fdee3d8b5c1830a2fe1064736f6c63430008130033",
  "linkReferences": {},
  "deployedLinkReferences": {}
}